{
  "_format": "hh-sol-artifact-1",
  "contractName": "BookRental",
  "sourceName": "contracts/BookRental.sol",
  "abi": [
    {
      "inputs": [],
      "stateMutability": "nonpayable",
      "type": "constructor"
    },
    {
      "inputs": [],
      "name": "BookRental__AlreadyRegistered",
      "type": "error"
    },
    {
      "inputs": [],
      "name": "BookRental__CannotRentOwnItem",
      "type": "error"
    },
    {
      "inputs": [],
      "name": "BookRental__DepositTooLow",
      "type": "error"
    },
    {
      "inputs": [],
      "name": "BookRental__IPFSCIDRequired",
      "type": "error"
    },
    {
      "inputs": [],
      "name": "BookRental__InsufficientPayment",
      "type": "error"
    },
    {
      "inputs": [],
      "name": "BookRental__InvalidPrice",
      "type": "error"
    },
    {
      "inputs": [],
      "name": "BookRental__InvalidStatus",
      "type": "error"
    },
    {
      "inputs": [],
      "name": "BookRental__MaxRentalsReached",
      "type": "error"
    },
    {
      "inputs": [],
      "name": "BookRental__NoEligibleArbitrators",
      "type": "error"
    },
    {
      "inputs": [],
      "name": "BookRental__NotArbitrator",
      "type": "error"
    },
    {
      "inputs": [],
      "name": "BookRental__NotItemOwner",
      "type": "error"
    },
    {
      "inputs": [],
      "name": "BookRental__NotRegistered",
      "type": "error"
    },
    {
      "inputs": [],
      "name": "BookRental__NotRenter",
      "type": "error"
    },
    {
      "inputs": [],
      "name": "BookRental__TermsNotAccepted",
      "type": "error"
    },
    {
      "inputs": [],
      "name": "BookRental__Unauthorized",
      "type": "error"
    },
    {
      "inputs": [
        {
          "internalType": "address",
          "name": "owner",
          "type": "address"
        }
      ],
      "name": "OwnableInvalidOwner",
      "type": "error"
    },
    {
      "inputs": [
        {
          "internalType": "address",
          "name": "account",
          "type": "address"
        }
      ],
      "name": "OwnableUnauthorizedAccount",
      "type": "error"
    },
    {
      "inputs": [],
      "name": "ReentrancyGuardReentrantCall",
      "type": "error"
    },
    {
      "anonymous": false,
      "inputs": [
        {
          "indexed": true,
          "internalType": "address",
          "name": "arbitrator",
          "type": "address"
        }
      ],
      "name": "ArbitratorRegistered",
      "type": "event"
    },
    {
      "anonymous": false,
      "inputs": [
        {
          "indexed": true,
          "internalType": "address",
          "name": "arbitrator",
          "type": "address"
        }
      ],
      "name": "ArbitratorRemoved",
      "type": "event"
    },
    {
      "anonymous": false,
      "inputs": [
        {
          "indexed": true,
          "internalType": "uint256",
          "name": "itemId",
          "type": "uint256"
        },
        {
          "indexed": true,
          "internalType": "address",
          "name": "raisedBy",
          "type": "address"
        },
        {
          "indexed": true,
          "internalType": "address",
          "name": "chosenArbitrator",
          "type": "address"
        }
      ],
      "name": "DisputeRaised",
      "type": "event"
    },
    {
      "anonymous": false,
      "inputs": [
        {
          "indexed": true,
          "internalType": "uint256",
          "name": "itemId",
          "type": "uint256"
        },
        {
          "indexed": true,
          "internalType": "address",
          "name": "winner",
          "type": "address"
        }
      ],
      "name": "DisputeResolved",
      "type": "event"
    },
    {
      "anonymous": false,
      "inputs": [
        {
          "indexed": true,
          "internalType": "uint256",
          "name": "itemId",
          "type": "uint256"
        },
        {
          "indexed": true,
          "internalType": "address",
          "name": "owner",
          "type": "address"
        },
        {
          "indexed": false,
          "internalType": "string",
          "name": "ipfsCID",
          "type": "string"
        }
      ],
      "name": "ItemListed",
      "type": "event"
    },
    {
      "anonymous": false,
      "inputs": [
        {
          "indexed": true,
          "internalType": "uint256",
          "name": "itemId",
          "type": "uint256"
        },
        {
          "indexed": true,
          "internalType": "address",
          "name": "renter",
          "type": "address"
        }
      ],
      "name": "ItemRented",
      "type": "event"
    },
    {
      "anonymous": false,
      "inputs": [
        {
          "indexed": true,
          "internalType": "uint256",
          "name": "itemId",
          "type": "uint256"
        },
        {
          "indexed": true,
          "internalType": "address",
          "name": "renter",
          "type": "address"
        }
      ],
      "name": "ItemReturned",
      "type": "event"
    },
    {
      "anonymous": false,
      "inputs": [
        {
          "indexed": true,
          "internalType": "address",
          "name": "previousOwner",
          "type": "address"
        },
        {
          "indexed": true,
          "internalType": "address",
          "name": "newOwner",
          "type": "address"
        }
      ],
      "name": "OwnershipTransferred",
      "type": "event"
    },
    {
      "anonymous": false,
      "inputs": [
        {
          "indexed": true,
          "internalType": "address",
          "name": "user",
          "type": "address"
        },
        {
          "indexed": false,
          "internalType": "int256",
          "name": "newReputation",
          "type": "int256"
        }
      ],
      "name": "ReputationUpdated",
      "type": "event"
    },
    {
      "anonymous": false,
      "inputs": [
        {
          "indexed": true,
          "internalType": "uint256",
          "name": "itemId",
          "type": "uint256"
        },
        {
          "indexed": false,
          "internalType": "uint256",
          "name": "refundAmount",
          "type": "uint256"
        }
      ],
      "name": "ReturnConfirmed",
      "type": "event"
    },
    {
      "inputs": [],
      "name": "MAX_ACTIVE_RENTALS",
      "outputs": [
        {
          "internalType": "uint256",
          "name": "",
          "type": "uint256"
        }
      ],
      "stateMutability": "view",
      "type": "function"
    },
    {
      "inputs": [],
      "name": "STANDARD_RENTAL_PERIOD",
      "outputs": [
        {
          "internalType": "uint256",
          "name": "",
          "type": "uint256"
        }
      ],
      "stateMutability": "view",
      "type": "function"
    },
    {
      "inputs": [
        {
          "internalType": "address",
          "name": "",
          "type": "address"
        }
      ],
      "name": "activeRentals",
      "outputs": [
        {
          "internalType": "uint256",
          "name": "",
          "type": "uint256"
        }
      ],
      "stateMutability": "view",
      "type": "function"
    },
    {
      "inputs": [
        {
          "internalType": "uint256",
          "name": "",
          "type": "uint256"
        }
      ],
      "name": "arbitratorPool",
      "outputs": [
        {
          "internalType": "address",
          "name": "",
          "type": "address"
        }
      ],
      "stateMutability": "view",
      "type": "function"
    },
    {
      "inputs": [
        {
          "internalType": "uint256",
          "name": "",
          "type": "uint256"
        }
      ],
      "name": "assignedArbitrator",
      "outputs": [
        {
          "internalType": "address",
          "name": "",
          "type": "address"
        }
      ],
      "stateMutability": "view",
      "type": "function"
    },
    {
      "inputs": [
        {
          "internalType": "uint256",
          "name": "_itemId",
          "type": "uint256"
        }
      ],
      "name": "confirmReturn",
      "outputs": [],
      "stateMutability": "nonpayable",
      "type": "function"
    },
    {
      "inputs": [],
      "name": "getArbitratorCount",
      "outputs": [
        {
          "internalType": "uint256",
          "name": "",
          "type": "uint256"
        }
      ],
      "stateMutability": "view",
      "type": "function"
    },
    {
      "inputs": [],
      "name": "getArbitratorPool",
      "outputs": [
        {
          "internalType": "address[]",
          "name": "",
          "type": "address[]"
        }
      ],
      "stateMutability": "view",
      "type": "function"
    },
    {
      "inputs": [
        {
          "internalType": "uint256",
          "name": "_itemId",
          "type": "uint256"
        }
      ],
      "name": "getItem",
      "outputs": [
        {
          "components": [
            {
              "internalType": "address payable",
              "name": "owner",
              "type": "address"
            },
            {
              "internalType": "address payable",
              "name": "renter",
              "type": "address"
            },
            {
              "internalType": "uint256",
              "name": "pricePerDay",
              "type": "uint256"
            },
            {
              "internalType": "uint256",
              "name": "depositAmount",
              "type": "uint256"
            },
            {
              "internalType": "enum BookRental.Status",
              "name": "status",
              "type": "uint8"
            },
            {
              "internalType": "uint40",
              "name": "rentedAt",
              "type": "uint40"
            },
            {
              "internalType": "uint40",
              "name": "returnedAt",
              "type": "uint40"
            },
            {
              "internalType": "uint40",
              "name": "disputeRaisedAt",
              "type": "uint40"
            },
            {
              "internalType": "string",
              "name": "ipfsCID",
              "type": "string"
            }
          ],
          "internalType": "struct BookRental.Item",
          "name": "",
          "type": "tuple"
        }
      ],
      "stateMutability": "view",
      "type": "function"
    },
    {
      "inputs": [
        {
          "internalType": "address",
          "name": "_user",
          "type": "address"
        }
      ],
      "name": "getReputation",
      "outputs": [
        {
          "internalType": "int256",
          "name": "",
          "type": "int256"
        }
      ],
      "stateMutability": "view",
      "type": "function"
    },
    {
      "inputs": [
        {
          "internalType": "address",
          "name": "",
          "type": "address"
        }
      ],
      "name": "isArbitrator",
      "outputs": [
        {
          "internalType": "bool",
          "name": "",
          "type": "bool"
        }
      ],
      "stateMutability": "view",
      "type": "function"
    },
    {
      "inputs": [],
      "name": "itemCounter",
      "outputs": [
        {
          "internalType": "uint256",
          "name": "",
          "type": "uint256"
        }
      ],
      "stateMutability": "view",
      "type": "function"
    },
    {
      "inputs": [
        {
          "internalType": "uint256",
          "name": "",
          "type": "uint256"
        }
      ],
      "name": "items",
      "outputs": [
        {
          "internalType": "address payable",
          "name": "owner",
          "type": "address"
        },
        {
          "internalType": "address payable",
          "name": "renter",
          "type": "address"
        },
        {
          "internalType": "uint256",
          "name": "pricePerDay",
          "type": "uint256"
        },
        {
          "internalType": "uint256",
          "name": "depositAmount",
          "type": "uint256"
        },
        {
          "internalType": "enum BookRental.Status",
          "name": "status",
          "type": "uint8"
        },
        {
          "internalType": "uint40",
          "name": "rentedAt",
          "type": "uint40"
        },
        {
          "internalType": "uint40",
          "name": "returnedAt",
          "type": "uint40"
        },
        {
          "internalType": "uint40",
          "name": "disputeRaisedAt",
          "type": "uint40"
        },
        {
          "internalType": "string",
          "name": "ipfsCID",
          "type": "string"
        }
      ],
      "stateMutability": "view",
      "type": "function"
    },
    {
      "inputs": [
        {
          "internalType": "string",
          "name": "_ipfsCID",
          "type": "string"
        },
        {
          "internalType": "uint256",
          "name": "_pricePerDay",
          "type": "uint256"
        },
        {
          "internalType": "uint256",
          "name": "_depositAmount",
          "type": "uint256"
        }
      ],
      "name": "listItem",
      "outputs": [
        {
          "internalType": "uint256",
          "name": "",
          "type": "uint256"
        }
      ],
      "stateMutability": "nonpayable",
      "type": "function"
    },
    {
      "inputs": [],
      "name": "owner",
      "outputs": [
        {
          "internalType": "address",
          "name": "",
          "type": "address"
        }
      ],
      "stateMutability": "view",
      "type": "function"
    },
    {
      "inputs": [
        {
          "internalType": "uint256",
          "name": "_itemId",
          "type": "uint256"
        }
      ],
      "name": "raiseDispute",
      "outputs": [],
      "stateMutability": "nonpayable",
      "type": "function"
    },
    {
      "inputs": [],
      "name": "registerAsArbitrator",
      "outputs": [],
      "stateMutability": "nonpayable",
      "type": "function"
    },
    {
      "inputs": [],
      "name": "renounceOwnership",
      "outputs": [],
      "stateMutability": "nonpayable",
      "type": "function"
    },
    {
      "inputs": [
        {
          "internalType": "uint256",
          "name": "_itemId",
          "type": "uint256"
        },
        {
          "internalType": "bool",
          "name": "_acceptedTerms",
          "type": "bool"
        }
      ],
      "name": "rentItem",
      "outputs": [],
      "stateMutability": "payable",
      "type": "function"
    },
    {
      "inputs": [
        {
          "internalType": "address",
          "name": "",
          "type": "address"
        }
      ],
      "name": "reputation",
      "outputs": [
        {
          "internalType": "int256",
          "name": "",
          "type": "int256"
        }
      ],
      "stateMutability": "view",
      "type": "function"
    },
    {
      "inputs": [
        {
          "internalType": "uint256",
          "name": "_itemId",
          "type": "uint256"
        },
        {
          "internalType": "address payable",
          "name": "_winner",
          "type": "address"
        }
      ],
      "name": "resolveDispute",
      "outputs": [],
      "stateMutability": "nonpayable",
      "type": "function"
    },
    {
      "inputs": [
        {
          "internalType": "uint256",
          "name": "_itemId",
          "type": "uint256"
        }
      ],
      "name": "returnItem",
      "outputs": [],
      "stateMutability": "nonpayable",
      "type": "function"
    },
    {
      "inputs": [
        {
          "internalType": "address",
          "name": "newOwner",
          "type": "address"
        }
      ],
      "name": "transferOwnership",
      "outputs": [],
      "stateMutability": "nonpayable",
      "type": "function"
    },
    {
      "inputs": [],
      "name": "unregisterAsArbitrator",
      "outputs": [],
      "stateMutability": "nonpayable",
      "type": "function"
    }
  ],
  "bytecode": "0x608060405234801561001057600080fd5b5060017f9b779b17422d0df92223018b32b4d1fa46e071723d6817e2486d003becc55f0055338061005b57604051631e4fbdf760e01b81526000600482015260240160405180910390fd5b610064816100c6565b50336000818152600560205260408120805460ff191660019081179091556004805491820181559091527f8a35acfbc15ff81a39ae7d344fd709f28e8600b4aa8c65c6b64bfe7fe36bd19b0180546001600160a01b0319169091179055610116565b600080546001600160a01b038381166001600160a01b0319831681178455604051919092169283917f8be0079c531659141344cd1fd0a4f28419497f9722a3daafe3b4186f6b6457e09190a35050565b61204c806101256000396000f3fe60806040526004361061014b5760003560e01c80639c89a0e2116100b6578063de2ad1ce1161006f578063de2ad1ce146103dd578063e86c2457146103f2578063ebc8c50014610412578063f176627914610427578063f2fde38b14610447578063f578470c1461046757600080fd5b80639c89a0e2146102e65780639f6bd2a914610306578063a1e4f4bc14610346578063a5c1674e1461035b578063b9f794511461037b578063bfb231d2146103a857600080fd5b806364a40f801161010857806364a40f80146102255780636d6d00ed1461023c578063715018a6146102525780637fe2372c1461026757806382520ee8146102b55780638da5cb5b146102c857600080fd5b80630e33599d146101505780631923c96f14610172578063223ed1dd146101965780632e5df6e3146101b65780633129e773146101d65780633fbb277c14610203575b600080fd5b34801561015c57600080fd5b5061017061016b3660046119e7565b610494565b005b34801561017e57600080fd5b506004545b6040519081526020015b60405180910390f35b3480156101a257600080fd5b506101706101b1366004611a17565b610790565b3480156101c257600080fd5b506101706101d1366004611a17565b61085f565b3480156101e257600080fd5b506101f66101f1366004611a17565b610c80565b60405161018d9190611aae565b34801561020f57600080fd5b50610218610e1b565b60405161018d9190611b6e565b34801561023157600080fd5b5061018362093a8081565b34801561024857600080fd5b5061018360015481565b34801561025e57600080fd5b50610170610e7d565b34801561027357600080fd5b5061029d610282366004611a17565b6007602052600090815260409020546001600160a01b031681565b6040516001600160a01b03909116815260200161018d565b6101706102c3366004611bbb565b610e91565b3480156102d457600080fd5b506000546001600160a01b031661029d565b3480156102f257600080fd5b50610183610301366004611be5565b611043565b34801561031257600080fd5b50610336610321366004611be5565b60056020526000908152604090205460ff1681565b604051901515815260200161018d565b34801561035257600080fd5b50610170611086565b34801561036757600080fd5b50610170610376366004611a17565b6111f7565b34801561038757600080fd5b50610183610396366004611be5565b60066020526000908152604090205481565b3480156103b457600080fd5b506103c86103c3366004611a17565b611333565b60405161018d99989796959493929190611c02565b3480156103e957600080fd5b50610183600581565b3480156103fe57600080fd5b5061029d61040d366004611a17565b611429565b34801561041e57600080fd5b50610170611453565b34801561043357600080fd5b50610183610442366004611c77565b611506565b34801561045357600080fd5b50610170610462366004611be5565b611736565b34801561047357600080fd5b50610183610482366004611be5565b60036020526000908152604090205481565b61049c611776565b6000828152600760205260409020546001600160a01b031633146104d3576040516307d512d560e41b815260040160405180910390fd5b6000828152600260205260409020600360048083015460ff16908111156104fc576104fc611a30565b1461051a576040516337a2c47760e21b815260040160405180910390fd5b6000816002015482600301546105309190611d0c565b82549091506000906001600160a01b0385811691161461055a5782546001600160a01b0316610569565b60018301546001600160a01b03165b6001600160a01b038516600090815260066020526040812054919250036105a7576001600160a01b0384166000908152600660205260409020600a90555b6001600160a01b03811660009081526006602052604081205490036105e3576001600160a01b0381166000908152600660205260409020600a90555b6001600160a01b038416600090815260066020526040812080546005929061060c908490611d25565b90915550506001600160a01b038116600090815260066020526040812080546005929061063a908490611d4d565b90915550506001600160a01b038416600081815260066020908152604091829020549151918252600080516020611fd7833981519152910160405180910390a26001600160a01b038116600081815260066020908152604091829020549151918252600080516020611fd7833981519152910160405180910390a26001830180546001600160a01b039081166000908152600360209081526040808320805460001901905560048801805460ff1916905584546001600160a01b0319908116909555898352600790915280822080549094169093559151908616916108fc851502918591818181858888f1935050505015801561073b573d6000803e3d6000fd5b506040516001600160a01b0385169086907ff77ceb5e091d2da041bc760667f9d5fe7a756949eaf29250ad0e60ca6f4c27d990600090a350505061078c6001600080516020611ff783398151915255565b5050565b6000818152600260205260409020600160048083015460ff16908111156107b9576107b9611a30565b146107d7576040516337a2c47760e21b815260040160405180910390fd5b60018101546001600160a01b03163314610804576040516359b703af60e01b815260040160405180910390fd5b60048101805464ffffffffff4216600160301b026affffffffff0000000000ff19909116176002179055604051339083907fc3193e818cdb299f699a8ae99c460279d0de3b72ce9331e279a52515bb5aca9f90600090a35050565b610867611776565b60008181526002602081905260409091209060048083015460ff169081111561089257610892611a30565b146108b0576040516337a2c47760e21b815260040160405180910390fd5b80546001600160a01b031633148015906108ef575060048101546108e590600160301b900464ffffffffff166202a300611d74565b64ffffffffff1642105b1561090d576040516363c9d95b60e01b815260040160405180910390fd5b60048101546000906109349064ffffffffff6101008204811691600160301b900416611d92565b64ffffffffff169050600061094c6201518083611dc6565b9050600061095d6201518084611dda565b1115610971578061096d81611dee565b9150505b8060000361097d575060015b6000806007831115610990576007610992565b825b90506000600784116109a55760006109aa565b600784035b60028088015493840291840202019250600091831190506109cc5760006109db565b60028501546109db9083611e07565b905060008086600301548310610a0a576000915086600201548760030154610a039190611d0c565b9050610a1d565b8287600301540391508287600201540190505b60048701805460ff191690556001870180546001600160a01b031981169091556001600160a01b03908116600081815260036020908152604080832080546000190190558b5490941682526006905291822054909103610a955787546001600160a01b03166000908152600660205260409020600a90555b6001600160a01b0381166000908152600660205260408120549003610ad1576001600160a01b0381166000908152600660205260409020600a90555b87546001600160a01b03166000908152600660205260408120805460019290610afb908490611d25565b90915550506001600160a01b0381166000908152600660205260408120805460019290610b29908490611d25565b909155505087546001600160a01b0316600081815260066020908152604091829020549151918252600080516020611fd7833981519152910160405180910390a26001600160a01b038116600081815260066020908152604091829020549151918252600080516020611fd7833981519152910160405180910390a28115610be65787546040516001600160a01b039091169083156108fc029084906000818181858888f19350505050158015610be4573d6000803e3d6000fd5b505b8215610c24576040516001600160a01b0382169084156108fc029085906000818181858888f19350505050158015610c22573d6000803e3d6000fd5b505b887fb2c4110a20d27fd2a835295123d67e5f9434fe1cb3c3133245b909ea88a80c9d84604051610c5691815260200190565b60405180910390a25050505050505050610c7d6001600080516020611ff783398151915255565b50565b604080516101208101825260008082526020820181905291810182905260608082018390526080820183905260a0820183905260c0820183905260e082019290925261010081019190915260008281526002602081815260409283902083516101208101855281546001600160a01b03908116825260018301541692810192909252918201549281019290925260038101546060830152600480820154608084019160ff90911690811115610d3757610d37611a30565b6004811115610d4857610d48611a30565b8152600482015464ffffffffff610100820481166020840152600160301b820481166040840152600160581b909104166060820152600582018054608090920191610d9290611e1a565b80601f0160208091040260200160405190810160405280929190818152602001828054610dbe90611e1a565b8015610e0b5780601f10610de057610100808354040283529160200191610e0b565b820191906000526020600020905b815481529060010190602001808311610dee57829003601f168201915b5050505050815250509050919050565b60606004805480602002602001604051908101604052809291908181526020018280548015610e7357602002820191906000526020600020905b81546001600160a01b03168152600190910190602001808311610e55575b5050505050905090565b610e85611792565b610e8f60006117bf565b565b610e99611776565b80610eb75760405163021be20960e41b815260040160405180910390fd5b60008281526002602052604081209060048083015460ff1690811115610edf57610edf611a30565b14610efd576040516337a2c47760e21b815260040160405180910390fd5b80546001600160a01b03163303610f2757604051633205115960e21b815260040160405180910390fd5b33600090815260036020526040902054600511610f575760405163699920ab60e11b815260040160405180910390fd5b600081600201548260030154610f6d9190611d0c565b905080341015610f9057604051637589333160e11b815260040160405180910390fd5b60048201805460018085018054336001600160a01b031990911681179091556fffffffffffffffffffffffffffffffff199092166101004264ffffffffff16026fffffffffffffffffffff000000000000191617811790925560008181526003602052604080822080549094019093559151909186917f60a8ad5021d41afc35cad1dcad49a375a37f3d9c05c95bdf82d653ae99869a0c9190a3505061078c6001600080516020611ff783398151915255565b6001600160a01b038116600090815260066020526040812054810361106a5750600a919050565b506001600160a01b031660009081526006602052604090205490565b3360009081526005602052604090205460ff166110b65760405163054a697960e01b815260040160405180910390fd5b336000908152600560205260408120805460ff19169055600454905b818110156111c857336001600160a01b0316600482815481106110f7576110f7611e54565b6000918252602090912001546001600160a01b0316036111c057600461111e600184611e07565b8154811061112e5761112e611e54565b600091825260209091200154600480546001600160a01b03909216918390811061115a5761115a611e54565b9060005260206000200160006101000a8154816001600160a01b0302191690836001600160a01b03160217905550600480548061119957611199611e6a565b600082815260209020810160001990810180546001600160a01b03191690550190556111c8565b6001016110d2565b5060405133907f715484adb5bc9cc29af577725dbf8486d0b82eca3ba79f65846e92ff38ef32b590600090a250565b60008181526002602081905260409091209060048083015460ff169081111561122257611222611a30565b14611240576040516337a2c47760e21b815260040160405180910390fd5b60018101546001600160a01b03163314801590611267575080546001600160a01b03163314155b1561128557604051636e14c4dd60e11b815260040160405180910390fd5b805460018201546000916112a6916001600160a01b0391821691168561180f565b60008481526007602052604080822080546001600160a01b0319166001600160a01b03851690811790915560048601805460036fffffffffff00000000000000000000ff19909116600160581b4264ffffffffff160217179055905192935091339186917f32c3577ad32544a8c06c1b330ada404f03a4d405574e524dd6d86eeba5f21e739190a4505050565b60026020819052600091825260409091208054600182015492820154600383015460048401546005850180546001600160a01b0395861697909516959394929360ff83169364ffffffffff6101008504811694600160301b8104821694600160581b90910490911692916113a690611e1a565b80601f01602080910402602001604051908101604052809291908181526020018280546113d290611e1a565b801561141f5780601f106113f45761010080835404028352916020019161141f565b820191906000526020600020905b81548152906001019060200180831161140257829003601f168201915b5050505050905089565b6004818154811061143957600080fd5b6000918252602090912001546001600160a01b0316905081565b3360009081526005602052604090205460ff161561148457604051630e1e689f60e11b815260040160405180910390fd5b33600081815260056020526040808220805460ff1916600190811790915560048054918201815583527f8a35acfbc15ff81a39ae7d344fd709f28e8600b4aa8c65c6b64bfe7fe36bd19b0180546001600160a01b03191684179055517fc80bad7f86a895f590d6beaa663ccf7f0de84f1fd2a042b944433700879d61229190a2565b600083810361152857604051631a2da5df60e21b815260040160405180910390fd5b82821015611549576040516307ae42cd60e41b815260040160405180910390fd5b60018054810190556040805161012081018252338152600060208201819052918101859052606081018490529060808201908152602001600064ffffffffff168152602001600064ffffffffff168152602001600064ffffffffff16815260200186868080601f016020809104026020016040519081016040528093929190818152602001838380828437600092018290525093909452505060018054825260026020818152604093849020865181546001600160a01b03199081166001600160a01b039283161783559288015182860180549094169116179091559285015190830155606084015160038301556080840151600480840180549495509193919260ff199092169190849081111561166357611663611a30565b021790555060a082015160048201805460c085015160e086015164ffffffffff908116600160581b0264ffffffffff60581b19928216600160301b026affffffffff0000000000001992909616610100908102929092166affffffffffffffffffff001990941693909317949094171617905582015160058201906116e89082611ee7565b50506001546040513392507fe1c2078c29a65ada61730619230273d978ed51ccefc8b1f794ca5ef19d75b99b906117229089908990611fa7565b60405180910390a350600154949350505050565b61173e611792565b6001600160a01b03811661176d57604051631e4fbdf760e01b8152600060048201526024015b60405180910390fd5b610c7d816117bf565b61177e6119a2565b6002600080516020611ff783398151915255565b6000546001600160a01b03163314610e8f5760405163118cdaa760e01b8152336004820152602401611764565b600080546001600160a01b038381166001600160a01b0319831681178455604051919092169283917f8be0079c531659141344cd1fd0a4f28419497f9722a3daafe3b4186f6b6457e09190a35050565b600454600090818167ffffffffffffffff81111561182f5761182f611e80565b604051908082528060200260200182016040528015611858578160200160208202803683370190505b5090506000805b838110156118fd5760006004828154811061187c5761187c611e54565b6000918252602090912001546001600160a01b039081169150891681148015906118b85750876001600160a01b0316816001600160a01b031614155b156118f457808484815181106118d0576118d0611e54565b6001600160a01b03909216602092830291909101909101526118f183611dee565b92505b5060010161185f565b508060000361191c576000546001600160a01b0316935050505061199b565b604080514460208201524291810191909152606080820187905233901b6bffffffffffffffffffffffff1916608082015260009082906094016040516020818303038152906040528051906020012060001c6119789190611dda565b905082818151811061198c5761198c611e54565b60200260200101519450505050505b9392505050565b600080516020611ff783398151915254600203610e8f57604051633ee5aeb560e01b815260040160405180910390fd5b6001600160a01b0381168114610c7d57600080fd5b600080604083850312156119fa57600080fd5b823591506020830135611a0c816119d2565b809150509250929050565b600060208284031215611a2957600080fd5b5035919050565b634e487b7160e01b600052602160045260246000fd5b60058110611a6457634e487b7160e01b600052602160045260246000fd5b9052565b6000815180845260005b81811015611a8e57602081850181015186830182015201611a72565b506000602082860101526020601f19601f83011685010191505092915050565b60208152611ac86020820183516001600160a01b03169052565b60006020830151611ae460408401826001600160a01b03169052565b5060408301516060830152606083015160808301526080830151611b0b60a0840182611a46565b5060a083015164ffffffffff811660c08401525060c083015164ffffffffff811660e08401525060e0830151610100611b4c8185018364ffffffffff169052565b840151610120848101529050611b66610140840182611a68565b949350505050565b6020808252825182820181905260009190848201906040850190845b81811015611baf5783516001600160a01b031683529284019291840191600101611b8a565b50909695505050505050565b60008060408385031215611bce57600080fd5b8235915060208301358015158114611a0c57600080fd5b600060208284031215611bf757600080fd5b813561199b816119d2565b6001600160a01b038a811682528916602082015260408101889052606081018790526000610120611c366080840189611a46565b64ffffffffff87811660a085015286811660c0850152851660e08401526101008301819052611c6781840185611a68565b9c9b505050505050505050505050565b60008060008060608587031215611c8d57600080fd5b843567ffffffffffffffff80821115611ca557600080fd5b818701915087601f830112611cb957600080fd5b813581811115611cc857600080fd5b886020828501011115611cda57600080fd5b6020928301999098509187013596604001359550909350505050565b634e487b7160e01b600052601160045260246000fd5b80820180821115611d1f57611d1f611cf6565b92915050565b8082018281126000831280158216821582161715611d4557611d45611cf6565b505092915050565b8181036000831280158383131683831282161715611d6d57611d6d611cf6565b5092915050565b64ffffffffff818116838216019080821115611d6d57611d6d611cf6565b64ffffffffff828116828216039080821115611d6d57611d6d611cf6565b634e487b7160e01b600052601260045260246000fd5b600082611dd557611dd5611db0565b500490565b600082611de957611de9611db0565b500690565b600060018201611e0057611e00611cf6565b5060010190565b81810381811115611d1f57611d1f611cf6565b600181811c90821680611e2e57607f821691505b602082108103611e4e57634e487b7160e01b600052602260045260246000fd5b50919050565b634e487b7160e01b600052603260045260246000fd5b634e487b7160e01b600052603160045260246000fd5b634e487b7160e01b600052604160045260246000fd5b601f821115611ee2576000816000526020600020601f850160051c81016020861015611ebf5750805b601f850160051c820191505b81811015611ede57828155600101611ecb565b5050505b505050565b815167ffffffffffffffff811115611f0157611f01611e80565b611f1581611f0f8454611e1a565b84611e96565b602080601f831160018114611f4a5760008415611f325750858301515b600019600386901b1c1916600185901b178555611ede565b600085815260208120601f198616915b82811015611f7957888601518255948401946001909101908401611f5a565b5085821015611f975787850151600019600388901b60f8161c191681555b5050505050600190811b01905550565b60208152816020820152818360408301376000818301604090810191909152601f909201601f1916010191905056fe21b93f5364d09d606ec33450e45ad2e33958e3dac6c4f771ed1218f1eca47db59b779b17422d0df92223018b32b4d1fa46e071723d6817e2486d003becc55f00a2646970667358221220e800fac3a09c38d8e0a4e85e7271e7c3cb200ada4044f2c1fb3fc53e90bbedc964736f6c63430008180033",
  "linkReferences": {},
  "deployedLinkReferences": {}
}